{
  "contractName": "Base",
  "abi": [
    {
      "constant": true,
      "inputs": [],
      "name": "get_linking_id",
      "outputs": [
        {
          "name": "",
          "type": "string"
        }
      ],
      "payable": false,
      "stateMutability": "view",
      "type": "function"
    },
    {
      "constant": true,
      "inputs": [],
      "name": "get_pseudonym_id",
      "outputs": [
        {
          "name": "",
          "type": "address"
        }
      ],
      "payable": false,
      "stateMutability": "view",
      "type": "function"
    },
    {
      "constant": false,
      "inputs": [
        {
          "name": "transaction_id",
          "type": "string"
        },
        {
          "name": "link_id",
          "type": "string"
        },
        {
          "name": "search_item",
          "type": "string"
        }
      ],
      "name": "request",
      "outputs": [],
      "payable": false,
      "stateMutability": "nonpayable",
      "type": "function"
    },
    {
      "constant": true,
      "inputs": [],
      "name": "get_search_term",
      "outputs": [
        {
          "name": "",
          "type": "string"
        }
      ],
      "payable": false,
      "stateMutability": "view",
      "type": "function"
    },
    {
      "constant": true,
      "inputs": [],
      "name": "get_transaction_id",
      "outputs": [
        {
          "name": "",
          "type": "string"
        }
      ],
      "payable": false,
      "stateMutability": "view",
      "type": "function"
    },
    {
      "constant": true,
      "inputs": [
        {
          "name": "",
          "type": "uint256"
        }
      ],
      "name": "vendors",
      "outputs": [
        {
          "name": "offer_transaction_id",
          "type": "string"
        },
        {
          "name": "request_transaction_id",
          "type": "string"
        },
        {
          "name": "pseudonym_id",
          "type": "string"
        },
        {
          "name": "seen",
          "type": "bool"
        }
      ],
      "payable": false,
      "stateMutability": "view",
      "type": "function"
    },
    {
      "constant": false,
      "inputs": [
        {
          "name": "view_transaction",
          "type": "string"
        },
        {
          "name": "offer_transaction",
          "type": "string"
        },
        {
          "name": "pseudonym",
          "type": "string"
        },
        {
          "name": "linking",
          "type": "string"
        }
      ],
      "name": "view_offer",
      "outputs": [],
      "payable": false,
      "stateMutability": "nonpayable",
      "type": "function"
    },
    {
      "constant": false,
      "inputs": [
        {
          "name": "offer_transaction",
          "type": "string"
        },
        {
          "name": "request_transaction",
          "type": "string"
        },
        {
          "name": "pseudonym",
          "type": "string"
        }
      ],
      "name": "offer",
      "outputs": [],
      "payable": false,
      "stateMutability": "nonpayable",
      "type": "function"
    },
    {
      "constant": true,
      "inputs": [
        {
          "name": "",
          "type": "uint256"
        }
      ],
      "name": "views",
      "outputs": [
        {
          "name": "view_transaction_id",
          "type": "string"
        },
        {
          "name": "offer_transaction_id",
          "type": "string"
        },
        {
          "name": "pseudonym_id",
          "type": "string"
        },
        {
          "name": "linking_id",
          "type": "string"
        }
      ],
      "payable": false,
      "stateMutability": "view",
      "type": "function"
    }
  ],
  "bytecode": "0x6060604052341561000f57600080fd5b6111f48061001e6000396000f300606060405260043610610099576000357c0100000000000000000000000000000000000000000000000000000000900463ffffffff168063255964541461009e5780632d923fdf1461012c57806333f6cfb214610181578063519d18f0146102645780635e1d74ad146102f2578063a08d986d14610380578063b2d2454c14610556578063dff637aa1461067c578063e2b79a311461075f575b600080fd5b34156100a957600080fd5b6100b16109b3565b6040518080602001828103825283818151815260200191508051906020019080838360005b838110156100f15780820151818401526020810190506100d6565b50505050905090810190601f16801561011e5780820380516001836020036101000a031916815260200191505b509250505060405180910390f35b341561013757600080fd5b61013f610a5b565b604051808273ffffffffffffffffffffffffffffffffffffffff1673ffffffffffffffffffffffffffffffffffffffff16815260200191505060405180910390f35b341561018c57600080fd5b610262600480803590602001908201803590602001908080601f0160208091040260200160405190810160405280939291908181526020018383808284378201915050505050509190803590602001908201803590602001908080601f0160208091040260200160405190810160405280939291908181526020018383808284378201915050505050509190803590602001908201803590602001908080601f01602080910402602001604051908101604052809392919081815260200183838082843782019150505050505091905050610a84565b005b341561026f57600080fd5b610277610b0e565b6040518080602001828103825283818151815260200191508051906020019080838360005b838110156102b757808201518184015260208101905061029c565b50505050905090810190601f1680156102e45780820380516001836020036101000a031916815260200191505b509250505060405180910390f35b34156102fd57600080fd5b610305610bb6565b6040518080602001828103825283818151815260200191508051906020019080838360005b8381101561034557808201518184015260208101905061032a565b50505050905090810190601f1680156103725780820380516001836020036101000a031916815260200191505b509250505060405180910390f35b341561038b57600080fd5b6103a16004808035906020019091905050610c5e565b604051808060200180602001806020018515151515815260200184810384528881815460018160011615610100020316600290048152602001915080546001816001161561010002031660029004801561043c5780601f106104115761010080835404028352916020019161043c565b820191906000526020600020905b81548152906001019060200180831161041f57829003601f168201915b50508481038352878181546001816001161561010002031660029004815260200191508054600181600116156101000203166002900480156104bf5780601f10610494576101008083540402835291602001916104bf565b820191906000526020600020905b8154815290600101906020018083116104a257829003601f168201915b50508481038252868181546001816001161561010002031660029004815260200191508054600181600116156101000203166002900480156105425780601f1061051757610100808354040283529160200191610542565b820191906000526020600020905b81548152906001019060200180831161052557829003601f168201915b505097505050505050505060405180910390f35b341561056157600080fd5b61067a600480803590602001908201803590602001908080601f0160208091040260200160405190810160405280939291908181526020018383808284378201915050505050509190803590602001908201803590602001908080601f0160208091040260200160405190810160405280939291908181526020018383808284378201915050505050509190803590602001908201803590602001908080601f0160208091040260200160405190810160405280939291908181526020018383808284378201915050505050509190803590602001908201803590602001908080601f01602080910402602001604051908101604052809392919081815260200183838082843782019150505050505091905050610ca7565b005b341561068757600080fd5b61075d600480803590602001908201803590602001908080601f0160208091040260200160405190810160405280939291908181526020018383808284378201915050505050509190803590602001908201803590602001908080601f0160208091040260200160405190810160405280939291908181526020018383808284378201915050505050509190803590602001908201803590602001908080601f01602080910402602001604051908101604052809392919081815260200183838082843782019150505050505091905050610d7b565b005b341561076a57600080fd5b6107806004808035906020019091905050610e54565b60405180806020018060200180602001806020018581038552898181546001816001161561010002031660029004815260200191508054600181600116156101000203166002900480156108155780601f106107ea57610100808354040283529160200191610815565b820191906000526020600020905b8154815290600101906020018083116107f857829003601f168201915b50508581038452888181546001816001161561010002031660029004815260200191508054600181600116156101000203166002900480156108985780601f1061086d57610100808354040283529160200191610898565b820191906000526020600020905b81548152906001019060200180831161087b57829003601f168201915b505085810383528781815460018160011615610100020316600290048152602001915080546001816001161561010002031660029004801561091b5780601f106108f05761010080835404028352916020019161091b565b820191906000526020600020905b8154815290600101906020018083116108fe57829003601f168201915b505085810382528681815460018160011615610100020316600290048152602001915080546001816001161561010002031660029004801561099e5780601f106109735761010080835404028352916020019161099e565b820191906000526020600020905b81548152906001019060200180831161098157829003601f168201915b50509850505050505050505060405180910390f35b6109bb610e8f565b60028054600181600116156101000203166002900480601f016020809104026020016040519081016040528092919081815260200182805460018160011615610100020316600290048015610a515780601f10610a2657610100808354040283529160200191610a51565b820191906000526020600020905b815481529060010190602001808311610a3457829003601f168201915b5050505050905090565b60008060009054906101000a900473ffffffffffffffffffffffffffffffffffffffff16905090565b8260019080519060200190610a9a929190610ea3565b508160029080519060200190610ab1929190610ea3565b50336000806101000a81548173ffffffffffffffffffffffffffffffffffffffff021916908373ffffffffffffffffffffffffffffffffffffffff1602179055508060039080519060200190610b08929190610ea3565b50505050565b610b16610e8f565b60038054600181600116156101000203166002900480601f016020809104026020016040519081016040528092919081815260200182805460018160011615610100020316600290048015610bac5780601f10610b8157610100808354040283529160200191610bac565b820191906000526020600020905b815481529060010190602001808311610b8f57829003601f168201915b5050505050905090565b610bbe610e8f565b60018054600181600116156101000203166002900480601f016020809104026020016040519081016040528092919081815260200182805460018160011615610100020316600290048015610c545780601f10610c2957610100808354040283529160200191610c54565b820191906000526020600020905b815481529060010190602001808311610c3757829003601f168201915b5050505050905090565b600481815481101515610c6d57fe5b90600052602060002090600402016000915090508060000190806001019080600201908060030160009054906101000a900460ff16905084565b610caf610f23565b60806040519081016040528086815260200185815260200184815260200183815250905060058054806001018281610ce79190610f64565b916000526020600020906004020160008390919091506000820151816000019080519060200190610d19929190610f96565b506020820151816001019080519060200190610d36929190610f96565b506040820151816002019080519060200190610d53929190610f96565b506060820151816003019080519060200190610d70929190610f96565b505050505050505050565b610d83611016565b60806040519081016040528085815260200184815260200183815260200160001515815250905060048054806001018281610dbe9190611053565b916000526020600020906004020160008390919091506000820151816000019080519060200190610df0929190610f96565b506020820151816001019080519060200190610e0d929190610f96565b506040820151816002019080519060200190610e2a929190610f96565b5060608201518160030160006101000a81548160ff02191690831515021790555050505050505050565b600581815481101515610e6357fe5b906000526020600020906004020160009150905080600001908060010190806002019080600301905084565b602060405190810160405280600081525090565b828054600181600116156101000203166002900490600052602060002090601f016020900481019282601f10610ee457805160ff1916838001178555610f12565b82800160010185558215610f12579182015b82811115610f11578251825591602001919060010190610ef6565b5b509050610f1f9190611085565b5090565b608060405190810160405280610f376110aa565b8152602001610f446110aa565b8152602001610f516110aa565b8152602001610f5e6110aa565b81525090565b815481835581811511610f9157600402816004028360005260206000209182019101610f9091906110be565b5b505050565b828054600181600116156101000203166002900490600052602060002090601f016020900481019282601f10610fd757805160ff1916838001178555611005565b82800160010185558215611005579182015b82811115611004578251825591602001919060010190610fe9565b5b5090506110129190611085565b5090565b60806040519081016040528061102a6110aa565b81526020016110376110aa565b81526020016110446110aa565b81526020016000151581525090565b8154818355818115116110805760040281600402836000526020600020918201910161107f919061111d565b5b505050565b6110a791905b808211156110a357600081600090555060010161108b565b5090565b90565b602060405190810160405280600081525090565b61111a91905b8082111561111657600080820160006110dd9190611180565b6001820160006110ed9190611180565b6002820160006110fd9190611180565b60038201600061110d9190611180565b506004016110c4565b5090565b90565b61117d91905b80821115611179576000808201600061113c9190611180565b60018201600061114c9190611180565b60028201600061115c9190611180565b6003820160006101000a81549060ff021916905550600401611123565b5090565b90565b50805460018160011615610100020316600290046000825580601f106111a657506111c5565b601f0160209004906000526020600020908101906111c49190611085565b5b505600a165627a7a723058203621a19d35eeaf00f36765ff621d4239f71b9c04f953125110b6f8fa1fc68ded0029",
  "source": "pragma solidity ^0.4.8;\r\n\r\ncontract Base {\r\n    address pseudonym_id ;\r\n    string request_transaction_id ;\r\n    string linking_id ;\r\n    string search_term ;\r\n\r\n    struct Vendor{\r\n        string offer_transaction_id ;\r\n        string request_transaction_id ;\r\n        string pseudonym_id ;\r\n        /// string session_key ;\r\n        /// string cat_offer_value ;\r\n        /// string bonus_offer_value ;\r\n        /// string nonce ;\r\n        bool seen ;\r\n    }\r\n\r\n    struct View{\r\n        string view_transaction_id ;\r\n        string offer_transaction_id ;\r\n        string pseudonym_id ;\r\n        string linking_id ;\r\n        /// string session_key ;\r\n        /// string cat_offer_value ;\r\n        /// string bonus_offer_value ;\r\n        /// string nonce ;\r\n        ///bool seen ;\r\n    }\r\n    Vendor[] public vendors;\r\n    View[] public views;\r\n\r\n    function request(string transaction_id, string link_id, string search_item) {\r\n        request_transaction_id = transaction_id;\r\n        linking_id = link_id;\r\n        pseudonym_id = msg.sender;\r\n        search_term = search_item;\r\n    }\r\n\r\n    function get_transaction_id() constant returns (string) {\r\n        return request_transaction_id;\r\n    }\r\n\r\n    function get_pseudonym_id() constant returns (address) {\r\n        return pseudonym_id;\r\n    }\r\n\r\n    function get_linking_id() constant returns (string) {\r\n        return linking_id;\r\n    }\r\n\r\n    function get_search_term() constant returns (string) {\r\n        return search_term;\r\n    }\r\n\r\n    function offer(string offer_transaction, string request_transaction, string pseudonym){\r\n\r\n        /// comparing strings with references does not work. need to use StringUtils or figure out another way\r\n        /// require(StringUtils.equal(request_transaction_id,request_transaction));\r\n        Vendor memory ve = Vendor({offer_transaction_id :offer_transaction , request_transaction_id:request_transaction, pseudonym_id : pseudonym, seen: false });\r\n\r\n        /// Need to refactor this. Not enough stack space\r\n        /// , session_key: session_key, cat_offer_value:cat_offer_value, bonus_offer_value: bonus_offer_value, nonce: nonce, seen: false\r\n        vendors.push(ve);\r\n    }\r\n\r\n    function view_offer (string view_transaction, string offer_transaction, string pseudonym, string linking){\r\n        View memory view_object = View ({ view_transaction_id: view_transaction, offer_transaction_id: offer_transaction, pseudonym_id: pseudonym, linking_id:linking});\r\n        /// Need a check on offer transaction id to make boolean in offer array true. This will not compare string references.\r\n        /// Need to look at an alternate way\r\n        /// for now, insert these in the array of views.\t\r\n        views.push(view_object);\r\n    }\r\n}",
  "sourcePath": "C:\\Users\\WeiMin\\Desktop\\School Modules\\BitClave Project\\Code\\BitClave-POC\\contracts\\Base.sol",
  "compiler": {
    "name": "solc",
    "version": "0.4.18+commit.9cf6e910.Emscripten.clang"
  },
  "schemaVersion": "1.0.1",
  "updatedAt": "2017-11-12T20:38:24.469Z"
}